:020000007E2858
:100006002000FB01FA01F9018030F800F10CF00C38
:10001600031C16287408F90775080318750FFA07E4
:100026000318FB0A0310F01F1E287408FA07750848
:100036000318750FFB07FB0CFA0CF90CF80C031CE4
:1000460009287B08F3007A08F2007908F10078089D
:04005600F0000800AE
:0A005A002500910113129312080013
:1000640020001B08013EF000F1010030F13D2008A2
:10007400F400F50103200630F2007008F400710862
:10008400F500720803194A28F536F40CFF3E44289B
:100094000430F1007408F000710803195428F03595
:1000A400FF3E4F2830307005F3007408F0007508E7
:1000B400F100F136F00CF136F00C700825009100D7
:0A00C4000F30930573089304080041
:1000CE0022001D1F6D2821000D106F2821000E111A
:0C00DE0020001C150C30250093040800C5
:1000EA0012001E00F003031D7528F103031D752875
:0200FA000800FC
:1000FC0021008E0122008E011D1320001C109C106B
:10010C001F309B002D2019302000A00032206720CA
:10011C003430FC00F130FD00FD0B9228FC0B9228D2
:08012C00000000008E28992854
:020000040001F9
:04000E00E23FFF1EB0
:00000001FF
